# Seeds for failure cases proptest has generated in the past. It is
# automatically read and these particular cases re-run before any
# novel cases are generated.
#
# It is recommended to check this file in to source control so that
# everyone who runs the test benefits from these saved cases.
cc 8acc3b9d5f1121b2d24f2640e5b8a55b6197112181d6cbbe0daacd0f635da7c7 # shrinks to payloads = [(ExecutionPayloadFlashblockDeltaV1 { state_root: 0x0cef569f4cfcc1575d680be2eb2604018a74a844feefe6d327bb978df20de05f, receipts_root: 0x6f07294fd9ab46dc9ac814bbe79a178f9ead39341dca5d5a127dd689e6dfe401, logs_bloom: 0x00000000000000000000000000000000000000000000000000000000000000000000000000000000000000000000000000000000000000000000000000000000000000000000000000000000000000000000000000000000000000000000000000000000000000000000000000000000000000000000000000000000000000000000000000000000000000000000000000000000000000000000000000000000000000000000000000000000000000000000000000000000000000000000000000000000000000000000000000000000000000000000000000000000000000000000000000000000000000000000000000000000000000000000000000000000, gas_used: 625450, block_hash: 0x5de4e446f4aaaca623ef9c4c2c9c8a180979c21de5ca38e4581b3b27962b89fd, transactions: [0x02f887018001028305302094ca0500000000000000000000000000000000000180a4c6c2ea17000000000000000000000000000000000000000000000000000000000000000cc001a025f8dd864b913e45f48a1bee67ae0801f0e868b8b31c501bf967af93513789e1a077e1f0a1692461c450e15c3756f8af8a597c905207c9e14d5686f7bd025f9d08, 0x02f86501800102825208945050a4f4b3f9338c3472dcc01a87c76a144b3c9c8304226380c080a072c63d2fc1cfbe31e41c03cdd815ad67cbe341dbdd0bfc69cbd5172701009ba5a0342377f4dc55c6abbede8875109d63114fba53c6a85c9ad01867f2f89e017019, 0x02f86501800102825208945050a4f4b3f9338c3472dcc01a87c76a144b3c9c8301f4f380c001a072ad3eeec42bd019e32e05edb6ad62c41d3f73cde935a8d105b1f02973c7c043a01897467a945f8aed71df62c2317e86ec8f8e35cab9e81da355e7cb761defc18f, 0x02f867010101028307a12094ca050000000000000000000000000000000000028084b243cd76c001a0ef6d76873cf74212434c29cb124c9bc94bf2dcbc771002e94fffbdeb1a34150ca043d2ef146d110b49cfd0edaed12286297cc31c7efbcbebcf7bdf88bbfeaf6783, 0x02f887010101028305302094ca0500000000000000000000000000000000000280a4c6c2ea17000000000000000000000000000000000000000000000000000000000000000cc080a0e47fdc8ce472eb3f1d94eeb568a30c335572a1c8bf15ac41776a30d749466643a04bdd80cca96d60aeb1710b3a6209f672e277245dc9dedf9be50617a5d2f49b11, 0x02f887010201028305302094ca0500000000000000000000000000000000000280a4c6c2ea17000000000000000000000000000000000000000000000000000000000000000cc001a09823bca367208a30a0436ccdb31f2154ecc8f1827e090fc060eb906fffb6f9efa07163fdc9ff5ecf62b40fa7c83174c8effd8619ea6f796fe2ff768e6aee9c9e3f, 0x02f867010201028307a12094ca050000000000000000000000000000000000028084b243cd76c080a0730ffd7a3fd996e2f0809586e1906a82bf83e861d7afd3e55a98260251e273b4a031a2444629e322e691fee8a0d458eff57bd013affc40cbfb5e9d10788dc9a90b], withdrawals: [], withdrawals_root: 0x56e81f171bcc55a6ff8345e692c0f86e5b48e01b996cadc001622fb5e363b421, access_list_data: Some(FlashblockAccessListData { access_list: FlashblockAccessList { changes: [AccountChanges { address: 0x0000000000000000000000000000000000000000, storage_changes: [], storage_reads: [], balance_changes: [BalanceChange { block_access_index: 1, post_balance: 21510 }, BalanceChange { block_access_index: 2, post_balance: 42510 }, BalanceChange { block_access_index: 3, post_balance: 63510 }, BalanceChange { block_access_index: 4, post_balance: 175436 }, BalanceChange { block_access_index: 5, post_balance: 472430 }, BalanceChange { block_access_index: 6, post_balance: 530624 }, BalanceChange { block_access_index: 7, post_balance: 625450 }], nonce_changes: [NonceChange { block_access_index: 1, new_nonce: 0 }], code_changes: [CodeChange { block_access_index: 1, new_code: 0x }] }, AccountChanges { address: 0x000f3df6d732807ef1319fb7b8bb8522d0beac02, storage_changes: [], storage_reads: [], balance_changes: [BalanceChange { block_access_index: 0, post_balance: 0 }], nonce_changes: [NonceChange { block_access_index: 0, new_nonce: 0 }], code_changes: [CodeChange { block_access_index: 0, new_code: 0x }] }, AccountChanges { address: 0x1a642f0e3c3af545e7acbd38b07251b3990914f1, storage_changes: [], storage_reads: [], balance_changes: [BalanceChange { block_access_index: 3, post_balance: 999999999999999850757 }, BalanceChange { block_access_index: 4, post_balance: 999999999999999738831 }, BalanceChange { block_access_index: 6, post_balance: 999999999999999680637 }], nonce_changes: [NonceChange { block_access_index: 3, new_nonce: 1 }, NonceChange { block_access_index: 4, new_nonce: 2 }, NonceChange { block_access_index: 6, new_nonce: 3 }], code_changes: [] }, AccountChanges { address: 0x27121d78c46292272fc622e8618a7fe30d6be364, storage_changes: [], storage_reads: [], balance_changes: [BalanceChange { block_access_index: 7, post_balance: 0 }], nonce_changes: [NonceChange { block_access_index: 7, new_nonce: 1 }], code_changes: [CodeChange { block_access_index: 7, new_code: 0x6080604052348015600e575f5ffd5b50600436106026575f3560e01c8063c6c2ea1714602a575b5f5ffd5b6039603536600460a0565b604b565b60405190815260200160405180910390f35b5f6001818155600255818015608e576001811460955760025b6001840181101560825780545f198201540160019091019081556064565b5082600101549150609a565b5f9150609a565b600191505b50919050565b5f6020828403121560af575f5ffd5b503591905056 }] }, AccountChanges { address: 0x2e63c703ce06b779ed2e7250825c5a810be4ccc6, storage_changes: [], storage_reads: [], balance_changes: [BalanceChange { block_access_index: 4, post_balance: 0 }], nonce_changes: [NonceChange { block_access_index: 4, new_nonce: 1 }], code_changes: [CodeChange { block_access_index: 4, new_code: 0x6080604052348015600e575f5ffd5b50600436106026575f3560e01c8063c6c2ea1714602a575b5f5ffd5b6039603536600460a0565b604b565b60405190815260200160405180910390f35b5f6001818155600255818015608e576001811460955760025b6001840181101560825780545f198201540160019091019081556064565b5082600101549150609a565b5f9150609a565b600191505b50919050565b5f6020828403121560af575f5ffd5b503591905056 }] }, AccountChanges { address: 0x3325a78425f17a7e487eb5666b2bfd93abb06c70, storage_changes: [], storage_reads: [], balance_changes: [BalanceChange { block_access_index: 2, post_balance: 999999999999999708053 }], nonce_changes: [NonceChange { block_access_index: 2, new_nonce: 1 }], code_changes: [] }, AccountChanges { address: 0x4200000000000000000000000000000000000015, storage_changes: [], storage_reads: [0x0000000000000000000000000000000000000000000000000000000000000001, 0x0000000000000000000000000000000000000000000000000000000000000003, 0x0000000000000000000000000000000000000000000000000000000000000005, 0x0000000000000000000000000000000000000000000000000000000000000007, 0x0000000000000000000000000000000000000000000000000000000000000008], balance_changes: [], nonce_changes: [], code_changes: [] }, AccountChanges { address: 0x4200000000000000000000000000000000000019, storage_changes: [], storage_reads: [], balance_changes: [BalanceChange { block_access_index: 7, post_balance: 0 }], nonce_changes: [NonceChange { block_access_index: 7, new_nonce: 0 }], code_changes: [CodeChange { block_access_index: 7, new_code: 0x }] }, AccountChanges { address: 0x420000000000000000000000000000000000001a, storage_changes: [], storage_reads: [], balance_changes: [BalanceChange { block_access_index: 7, post_balance: 0 }], nonce_changes: [NonceChange { block_access_index: 7, new_nonce: 0 }], code_changes: [CodeChange { block_access_index: 7, new_code: 0x }] }, AccountChanges { address: 0x420000000000000000000000000000000000001b, storage_changes: [], storage_reads: [], balance_changes: [BalanceChange { block_access_index: 7, post_balance: 0 }], nonce_changes: [NonceChange { block_access_index: 7, new_nonce: 0 }], code_changes: [CodeChange { block_access_index: 7, new_code: 0x }] }, AccountChanges { address: 0x5050a4f4b3f9338c3472dcc01a87c76a144b3c9c, storage_changes: [], storage_reads: [], balance_changes: [BalanceChange { block_access_index: 1, post_balance: 999999999999999978490 }, BalanceChange { block_access_index: 2, post_balance: 1000000000000000249437 }, BalanceChange { block_access_index: 3, post_balance: 1000000000000000377680 }, BalanceChange { block_access_index: 5, post_balance: 1000000000000000080686 }, BalanceChange { block_access_index: 7, post_balance: 999999999999999985860 }], nonce_changes: [NonceChange { block_access_index: 1, new_nonce: 1 }, NonceChange { block_access_index: 5, new_nonce: 2 }, NonceChange { block_access_index: 7, new_nonce: 3 }], code_changes: [] }, AccountChanges { address: 0xca05000000000000000000000000000000000001, storage_changes: [], storage_reads: [], balance_changes: [], nonce_changes: [], code_changes: [] }, AccountChanges { address: 0xca05000000000000000000000000000000000002, storage_changes: [SlotChanges { slot: 0x0000000000000000000000000000000000000000000000000000000000000002, changes: [StorageChange { block_access_index: 5, new_value: 0x0000000000000000000000000000000000000000000000000000000000000001 }] }, SlotChanges { slot: 0x0000000000000000000000000000000000000000000000000000000000000003, changes: [StorageChange { block_access_index: 5, new_value: 0x0000000000000000000000000000000000000000000000000000000000000001 }] }, SlotChanges { slot: 0x0000000000000000000000000000000000000000000000000000000000000004, changes: [StorageChange { block_access_index: 5, new_value: 0x0000000000000000000000000000000000000000000000000000000000000002 }] }, SlotChanges { slot: 0x0000000000000000000000000000000000000000000000000000000000000005, changes: [StorageChange { block_access_index: 5, new_value: 0x0000000000000000000000000000000000000000000000000000000000000003 }] }, SlotChanges { slot: 0x0000000000000000000000000000000000000000000000000000000000000006, changes: [StorageChange { block_access_index: 5, new_value: 0x0000000000000000000000000000000000000000000000000000000000000005 }] }, SlotChanges { slot: 0x0000000000000000000000000000000000000000000000000000000000000007, changes: [StorageChange { block_access_index: 5, new_value: 0x0000000000000000000000000000000000000000000000000000000000000008 }] }, SlotChanges { slot: 0x0000000000000000000000000000000000000000000000000000000000000008, changes: [StorageChange { block_access_index: 5, new_value: 0x000000000000000000000000000000000000000000000000000000000000000d }] }, SlotChanges { slot: 0x0000000000000000000000000000000000000000000000000000000000000009, changes: [StorageChange { block_access_index: 5, new_value: 0x0000000000000000000000000000000000000000000000000000000000000015 }] }, SlotChanges { slot: 0x000000000000000000000000000000000000000000000000000000000000000a, changes: [StorageChange { block_access_index: 5, new_value: 0x0000000000000000000000000000000000000000000000000000000000000022 }] }, SlotChanges { slot: 0x000000000000000000000000000000000000000000000000000000000000000b, changes: [StorageChange { block_access_index: 5, new_value: 0x0000000000000000000000000000000000000000000000000000000000000037 }] }, SlotChanges { slot: 0x000000000000000000000000000000000000000000000000000000000000000c, changes: [StorageChange { block_access_index: 5, new_value: 0x0000000000000000000000000000000000000000000000000000000000000059 }] }, SlotChanges { slot: 0x000000000000000000000000000000000000000000000000000000000000000d, changes: [StorageChange { block_access_index: 5, new_value: 0x0000000000000000000000000000000000000000000000000000000000000090 }] }, SlotChanges { slot: 0x360894a13ba1a3210667c828492db98dca3e2076cc3735a920a3ca505d382bbc, changes: [StorageChange { block_access_index: 4, new_value: 0x0000000000000000000000002e63c703ce06b779ed2e7250825c5a810be4ccc6 }, StorageChange { block_access_index: 7, new_value: 0x00000000000000000000000027121d78c46292272fc622e8618a7fe30d6be364 }] }], storage_reads: [0x0000000000000000000000000000000000000000000000000000000000000001, 0x0000000000000000000000000000000000000000000000000000000000000002, 0x0000000000000000000000000000000000000000000000000000000000000003, 0x0000000000000000000000000000000000000000000000000000000000000004, 0x0000000000000000000000000000000000000000000000000000000000000005, 0x0000000000000000000000000000000000000000000000000000000000000006, 0x0000000000000000000000000000000000000000000000000000000000000007, 0x0000000000000000000000000000000000000000000000000000000000000008, 0x0000000000000000000000000000000000000000000000000000000000000009, 0x000000000000000000000000000000000000000000000000000000000000000a, 0x000000000000000000000000000000000000000000000000000000000000000b, 0x000000000000000000000000000000000000000000000000000000000000000c, 0x000000000000000000000000000000000000000000000000000000000000000d, 0x360894a13ba1a3210667c828492db98dca3e2076cc3735a920a3ca505d382bbc], balance_changes: [], nonce_changes: [NonceChange { block_access_index: 4, new_nonce: 2 }, NonceChange { block_access_index: 7, new_nonce: 3 }], code_changes: [] }], min_tx_index: 0, max_tx_index: 8 }, access_list_hash: 0x86b560cbb8a5272c562142fe2abe6c00b1d4a6629b913bf6d57a759279fe609c }) }, None)]
